:020000040800F2
:1000000000000120D93F00085512000857120008CF
:10001000591200085B1200085D1200080000000081
:100020000000000000000000000000005F12000857
:100030006112000800000000631200086512000849
:1000400029400008294000082940000829400008EC
:1000500029400008294000082940000829400008DC
:1000600029400008294000082940000829400008CC
:1000700029400008294000082940000829400008BC
:10008000294000082940000829400008000000001D
:1000900000000000000000000000000029400008EF
:1000A000294000082940000829400008294000088C
:1000B000294000082940000829400008294000087C
:1000C000294000082940000829400008294000086C
:1000D000294000086D1200082940000800000000B7
:1000E00029400008294000082940000800000000BD
:1000F000000000000000000000000000294000088F
:10010000000000002940000829400008294000089C
:1001100000000000000000000000000000000000DF
:10012000294000082940000829400008294000080B
:10013000294000080000000000000000000000004E
:10014000000000000000000000000000294000083E
:1001500029400008294000082940000829400008DB
:1001600029400008294000080000000000000000AD
:10017000000000000000000000000000000000007F
:1001800000000000294000080000000000000000FE
:0401900029400008FA
:1001980010B5054C237833B9044B13B10448AFF3B9
:1001A80000800123237010BD0C0000200000000017
:1001B8008440000808B5034B1BB103490348AFF35B
:1001C800008008BD000000001000002084400008E6
:1001D80081F0004102E000BF83F0004330B54FEAF0
:1001E80041044FEA430594EA050F08BF90EA020F5D
:1001F8001FBF54EA000C55EA020C7FEA645C7FEAF0
:10020800655C00F0E2804FEA5454D4EB5555B8BF12
:100218006D420CDD2C4480EA020281EA030382EA83
:10022800000083EA010180EA020281EA0303362D15
:1002380088BF30BD11F0004F4FEA01314FF4801CE8
:100248004CEA113102D0404261EB410113F0004FFA
:100258004FEA03334CEA133302D0524263EB4303B1
:1002680094EA050F00F0A780A4F10104D5F1200E4F
:100278000DDB02FA0EFC22FA05F2801841F10001AA
:1002880003FA0EF2801843FA05F359410EE0A5F17E
:1002980020050EF1200E012A03FA0EFC28BF4CF0AF
:1002A800020C43FA05F3C01851EBE37101F0004565
:1002B80007D54FF0000EDCF1000C7EEB00006EEB72
:1002C8000101B1F5801F1BD3B1F5001F0CD34908FC
:1002D8005FEA30004FEA3C0C04F101044FEA445253
:1002E80012F5800F80F09A80BCF1004F08BF5FEADA
:1002F800500C50F1000041EB045141EA050130BDBA
:100308005FEA4C0C404141EB0101013C28BFB1F5CB
:10031800801FE9D291F0000F04BF01460020B1FA16
:1003280081F308BF2033A3F10B03B3F120020CDAE9
:100338000C3208DD02F1140CC2F10C0201FA0CF0C7
:1003480021FA02F10CE002F11402D8BFC2F1200C2C
:1003580001FA02F120FA0CFCDCBF41EA0C019040E2
:10036800E41AA2BF01EB0451294330BD6FEA04042B
:100378001F3C1CDA0C340EDC04F11404C4F1200216
:1003880020FA04F001FA02F340EA030021FA04F328
:1003980045EA030130BDC4F10C04C4F1200220FA7F
:1003A80002F001FA04F340EA0300294630BD21FABD
:1003B80004F0294630BD94F0000F83F4801306BF83
:1003C80081F480110134013D4EE77FEA645C18BF77
:1003D8007FEA655C29D094EA050F08BF90EA020F0E
:1003E80005D054EA000C04BF1946104630BD91EA06
:1003F800030F1EBF0021002030BD5FEA545C05D109
:100408004000494128BF41F0004130BD14F5800447
:100418003CBF01F5801130BD01F0004545F0FE41BB
:1004280041F470014FF0000030BD7FEA645C1ABFF0
:10043800194610467FEA655C1CBF0B46024650EA27
:10044800013406BF52EA033591EA030F41F4002153
:1004580030BD00BF90F0000F04BF0021704730B5D9
:100468004FF4806404F132044FF000054FF00001AE
:1004780050E700BF90F0000F04BF0021704730B56F
:100488004FF4806404F1320410F0004548BF404244
:100498004FF000013EE700BF42004FEAE2014FEA99
:1004A80031014FEA02701FBF12F07F4393F07F4F74
:1004B80081F06051704732F07F4208BF704793F077
:1004C8007F4F04BF41F40021704730B54FF460748A
:1004D80001F0004521F000411CE700BF50EA01028D
:1004E80008BF704730B54FF000050AE050EA010236
:1004F80008BF704730B511F0004502D5404261EBA6
:1005080041014FF4806404F132045FEA915C3FF4E6
:10051800D8AE4FF003025FEADC0C18BF03325FEA83
:10052800DC0C18BF033202EBDC02C2F1200300FA34
:1005380003FC20FA02F001FA03FE40EA0E0021FA59
:1005480002F11444BDE600BF70B54FF0FF0C4CF447
:10055800E06C1CEA11541DBF1CEA135594EA0C0FF9
:1005680095EA0C0F00F0DEF82C4481EA030621EA34
:100578004C5123EA4C5350EA013518BF52EA03356F
:1005880041F4801143F4801338D0A0FB02CE4FF021
:100598000005E1FB02E506F00042E0FB03E54FF051
:1005A8000006E1FB03569CF0000F18BF4EF0010E49
:1005B800A4F1FF04B6F5007F64F5407404D25FEA45
:1005C8004E0E6D4146EB060642EAC62141EA5551F8
:1005D8004FEAC52040EA5E504FEACE2EB4F1FD0C3A
:1005E80088BFBCF5E06F1ED8BEF1004F08BF5FEAB8
:1005F800500E50F1000041EB045170BD06F000466A
:1006080046EA010140EA020081EA0301B4EB5C0416
:10061800C2BFD4EB0C0541EA045170BD41F480110E
:100628004FF0000E013C00F3AB8014F1360FDEBF33
:10063800002001F0004170BDC4F10004203C35DA0F
:100648000C341BDC04F11404C4F1200500FA05F392
:1006580020FA04F001FA05F240EA020001F0004233
:1006680021F0004110EBD37021FA04F642EB0601A9
:100678005EEA430E08BF20EAD37070BDC4F10C04D3
:10068800C4F1200500FA04F320FA05F001FA04F297
:1006980040EA020001F0004110EBD37041F1000183
:1006A8005EEA430E08BF20EAD37070BDC4F120058E
:1006B80000FA05F24EEA020E20FA04F301FA05F2F6
:1006C80043EA020321FA04F001F0004121FA04F29E
:1006D80020EA020000EBD3705EEA430E08BF20EA6E
:1006E800D37070BD94F0000F0FD101F000464000A8
:1006F80041EB010111F4801F08BF013CF7D041EA2A
:10070800060195F0000F18BF704703F0004652002D
:1007180043EB030313F4801F08BF013DF7D043EAFE
:100728000603704794EA0C0F0CEA135518BF95EAB4
:100738000C0F0CD050EA410618BF52EA4306D1D13B
:1007480081EA030101F000414FF0000070BD50EA5A
:10075800410606BF1046194652EA430619D094EAE4
:100768000C0F02D150EA013613D195EA0C0F05D1CE
:1007780052EA03361CBF104619460AD181EA030122
:1007880001F0004141F0FE4141F470014FF00000DA
:1007980070BD41F0FE4141F4780170BD70B54FF075
:1007A800FF0C4CF4E06C1CEA11541DBF1CEA1355F5
:1007B80094EA0C0F95EA0C0F00F0A7F8A4EB0504D7
:1007C80081EA030E52EA03354FEA013100F08880CE
:1007D8004FEA03334FF0805545EA131343EA126397
:1007E8004FEA022245EA111545EA10654FEA00264C
:1007F8000EF000419D4208BF964244F1FD0404F505
:10080800407402D25B084FEA3202B61A65EB030560
:100818005B084FEA32024FF480104FF4002CB6EB1D
:10082800020E75EB030E22BFB61A754640EA0C009D
:100838005B084FEA3202B6EB020E75EB030E22BFDD
:10084800B61A754640EA5C005B084FEA3202B6EB1E
:10085800020E75EB030E22BFB61A754640EA9C00DD
:100868005B084FEA3202B6EB020E75EB030E22BFAD
:10087800B61A754640EADC0055EA060E18D04FEA6B
:10088800051545EA16754FEA06164FEAC30343EA0B
:1008980052734FEAC2025FEA1C1CC0D111F4801FD8
:1008A8000BD141EA00014FF000004FF0004CB6E7D1
:1008B80011F4801F04BF01430020B4F1FD0C88BF70
:1008C800BCF5E06F3FF6AFAEB5EB030C04BFB6EB7B
:1008D800020C5FEA500C50F1000041EB045170BD6E
:1008E8000EF0004E4EEA113114EB5C04C2BFD4EB9B
:1008F8000C0541EA045170BD41F480114FF0000E1F
:10090800013C90E645EA060E8DE60CEA135594EA9A
:100918000C0F08BF95EA0C0F3FF43BAF94EA0C0F9D
:100928000AD150EA01347FF434AF95EA0C0F7FF412
:1009380025AF104619462CE795EA0C0F06D152EA66
:1009480003353FF4FDAE1046194622E750EA41064A
:1009580018BF52EA43067FF4C5AE50EA41047FF45B
:100968000DAF52EA43057FF4EBAE12E74FF0FF3CC0
:1009780006E000BF4FF0010C02E000BF4FF0010C91
:100988004DF804CD4FEA410C7FEA6C5C4FEA430C0A
:1009980018BF7FEA6C5C1BD001B050EA410C0CBF59
:1009A80052EA430C91EA030F02BF90EA020F0020BB
:1009B800704710F1000F91EA030F58BF994208BF22
:1009C80090422CBFD8176FEAE37040F001007047DF
:1009D8004FEA410C7FEA6C5C02D150EA013C07D136
:1009E8004FEA430C7FEA6C5CD6D152EA033CD3D081
:1009F8005DF8040B704700BF8446104662468C467B
:100A08001946634600E000BF01B5FFF7B7FF0028AD
:100A180048BF10F1000F01BD4DF808EDFFF7F4FFD6
:100A28000CBF012000205DF808FB00BF4DF808ED61
:100A3800FFF7EAFF34BF012000205DF808FB00BF84
:100A48004DF808EDFFF7E0FF94BF012000205DF8A6
:100A580008FB00BF4DF808EDFFF7CEFF94BF01205B
:100A680000205DF808FB00BF4DF808EDFFF7C4FF54
:100A780034BF012000205DF808FB00BF4FEA4102A7
:100A880012F5001215D211D56FF47873B3EB6252D8
:100A980012D94FEAC12343F0004343EA505311F0FF
:100AA800004F23FA02F018BF404270474FF0000091
:100AB800704750EA013005D111F0004008BF6FF0CF
:100AC800004070474FF00000704700BF4A0011D245
:100AD80012F5001211D20DD56FF47873B3EB625290
:100AE8000ED44FEAC12343F0004343EA505323FA9C
:100AF80002F070474FF00000704750EA013002D111
:100B08004FF0FF3070474FF00000704753B94AB9B3
:100B1800002908BF00281CBF4FF0FF314FF0FF30FD
:100B280000F074B9ADF1080C6DE904CE00F006F8D8
:100B3800DDF804E0DDE9022304B070472DE9F04751
:100B4800089D04468E46002B4DD18A42944669D9A9
:100B5800B2FA82F252B101FA02F3C2F1200120FA8C
:100B680001F10CFA02FC41EA030E94404FEA1C48DA
:100B7800210CBEFBF8F61FFA8CF708FB16E341EAD6
:100B8800034306FB07F199420AD91CEB030306F15C
:100B9800FF3080F01F81994240F21C81023E63447D
:100BA8005B1AA4B2B3FBF8F008FB103344EA034421
:100BB80000FB07F7A7420AD91CEB040400F1FF3336
:100BC80080F00A81A74240F207816444023840EA73
:100BD8000640E41B00261DB1D4400023C5E90043AC
:100BE8003146BDE8F0878B4209D9002D00F0EF802F
:100BF8000026C5E9000130463146BDE8F087B3FA62
:100C080083F6002E4AD18B4202D3824200F2F98049
:100C1800841A61EB030301209E46002DE0D0C5E94C
:100C2800004EDDE702B9FFDEB2FA82F2002A40F098
:100C38009280A1EB0C014FEA1C471FFA8CFE01269B
:100C4800200CB1FBF7F307FB131140EA01410EFB3F
:100C580003F0884208D91CEB010103F1FF3802D2E6
:100C6800884200F2CB804346091AA4B2B1FBF7F0E0
:100C780007FB101144EA01440EFB00FEA64508D903
:100C88001CEB040400F1FF3102D2A64500F2BB8040
:100C98000846A4EB0E0440EA03409CE7C6F120078F
:100CA800B34022FA07FC4CEA030C20FA07F401FAD5
:100CB80006F31C43F9404FEA1C4900FA06F3B1FB5E
:100CC800F9F8200C1FFA8CFE09FB181140EA0141C3
:100CD80008FB0EF0884202FA06F20BD91CEB010160
:100CE80008F1FF3A80F08880884240F28580A8F1B8
:100CF80002086144091AA4B2B1FBF9F009FB10110A
:100D080044EA014100FB0EFE8E4508D91CEB0101A7
:100D180000F1FF346CD28E456AD90238614440EA4A
:100D28000840A0FB0294A1EB0E01A142C846A646CA
:100D380056D353D05DB1B3EB080261EB0E0101FA53
:100D480007F722FA06F3F1401F43C5E900710026B0
:100D58003146BDE8F087C2F12003D8400CFA02FC06
:100D680021FA03F3914001434FEA1C471FFA8CFE16
:100D7800B3FBF7F007FB10360B0C43EA064300FB06
:100D88000EF69E4204FA02F408D91CEB030300F1A4
:100D9800FF382FD29E422DD9023863449B1B89B25B
:100DA800B3FBF7F607FB163341EA034106FB0EF3E4
:100DB8008B4208D91CEB010106F1FF3816D28B4291
:100DC80014D9023E6144C91A46EA004638E72E465D
:100DD800284605E70646E3E61846F8E64B45A9D255
:100DE800B9EB020864EB0C0E0138A3E74646EAE7C4
:100DF800204694E74046D1E7D0467BE7023B614472
:100E080032E7304609E76444023842E7704700BFDA
:100E180072B6FEE700B595B03022002108A803F0AD
:100E280025F90023039304930593069307930193ED
:100E3800204A116C41F080511164126C02F080520A
:100E48000192019A02931C4A136823F4404343F425
:100E580000431360136803F440430293029B012389
:100E680008934FF48033099302230E934FF48002C2
:100E78000F9219221092A82211921293042313930D
:100E880008A800F0F1FA80B90F2303930221049116
:100E9800002305934FF480520692079303A800F0AD
:100EA80031FD20B915B05DF804FBFFF7B1FFFFF77E
:100EB800AFFF00BF003802400070004008B500F0E6
:100EC800C7FFFFF7A7FF00F02BF800F059F800F074
:100ED80063F900F0EFF803F035F80F4DB2EE040AAD
:100EE800284602F0A1FF0D4CB2EE040A204602F09B
:100EF8009BFF4FF47A7000F0D7FF6421284602F078
:100F0800EBFFAA21204602F0E7FF4FF47A7000F0C9
:100F1800CBFF03F05BF8E0E7100100202801002078
:100F280084B000220092154B196B41F0040119633B
:100F3800196B01F00401009100990192196B41F0BD
:100F480080011963196B01F08001019101990292E6
:100F5800196B41F001011963196B01F0010102914C
:100F6800029903921A6B42F002021A631B6B03F098
:100F780002030393039B04B0704700BF003802408C
:100F880008B50B480B4B03600B4B43600023836091
:100F9800C3604FF48042026143618361C3610362AD
:100FA80000F084F900B908BDFFF732FFFBE700BF86
:100FB8002800002000540040A086010030B589B008
:100FC8000023039304930593069307930268144B35
:100FD8009A4201D009B030BD00250195114C236B10
:100FE80043F002032363236B03F002030193019B85
:100FF800C023039312230493032306930423079324
:1010080003A9094800F054FD0295236C43F400132A
:101018002364236C03F400130293029BDAE700BFF6
:101028000054004000380240000402400268094BA6
:101038009A4200D0704782B000230193064B1A6C85
:1010480042F002021A641B6C03F002030193019B35
:1010580002B07047000400400038024000B587B075
:1010680000230193029303930493059302680E4BA4
:101078009A4202D007B05DF804FB002300930B4BA3
:101088001A6B42F001021A631B6B03F00103009311
:10109800009BC023019302230293059301A90448EE
:1010A80000F006FDE6E700BF0004004000380240FB
:1010B8000000024000B58FB000230A930B930C93F5
:1010C8000D93089309930193029303930493059353
:1010D800069307932648274A0260292242608360C4
:1010E80049F63F42C2600361836100F0FBFF68BBC1
:1010F8004FF480530A930AA91D4801F0F8F840BB41
:101108001B4801F01BF838BB00230893099308A972
:10111800174801F0F3F910BB6023019300220292F3
:101128000392042305930DEB0301114801F064F8C1
:10113800C0B904220DEB02010D4801F05DF8A0B919
:101148000B48FFF78BFF0FB05DF804FBFFF760FE5D
:10115800CEE7FFF75DFED3E7FFF75AFED4E7FFF7C8
:1011680057FED9E7FFF754FEE3E7FFF751FEE7E73D
:101178007C0000200004004000B583B08DF8070013
:1011880001231A460DF10701024801F050FB03B094
:101198005DF804FBC400002008B50A480A4B036048
:1011A8004FF4E133436000238360C36003610C2282
:1011B80042618361C36101F00AFB00B908BDFFF712
:1011C80027FEFBE7C40000200010014010B588B0DE
:1011D800002303930493059306930793026803F18E
:1011E800804303F588339A4201D008B010BD00242B
:1011F800019403F594335A6C42F010025A645A6C05
:1012080002F010020192019A02941A6B42F0010254
:101218001A631B6B03F001030293029B4FF4C06334
:10122800039302230493032306930723079303A935
:10123800054800F03DFC22462146252000F088FDA7
:10124800252000F0BDFDD0E700000240FEE7FEE7E4
:10125800FEE7FEE7FEE770477047704708B500F005
:1012680011FE08BD08B5024801F0D4FB08BD00BF57
:10127800C400002082B0002100910B4B5A6C42F44C
:1012880080425A645A6C02F480420092009A01919A
:101298001A6C42F080521A641B6C03F0805301935D
:1012A800019B02B0704700BF00380240002800F0E0
:1012B800CC8070B5044690F83D30002B77D02423BD
:1012C80084F83D302268136823F001031360226814
:1012D800136843F4004313602268136823F400433F
:1012E800136000F0C5FB62685A4B9A4264D85A4BA7
:1012F80098428CBF00230123002B40F0A880574957
:10130800A1FB00318B0C25686A6822F03F0242EA93
:1013180091426A6021680A6A22F03F0266684D4D70
:10132800AE424FD8013313430B622168CA6922F4D5
:101338004F4222F0FF026668464B9E424CD8431E3D
:101348007600B3FBF6F3013340F6FC70034278D025
:10135800C3F30B031343CB6121680B6823F0C0036D
:10136800E269206A024313430B6021688B6823F407
:10137800034323F0FF032269E068024313438B60B1
:101388002168CB6823F0FF036269A0690243134315
:10139800CB602268136843F00103136000202064C7
:1013A800202384F83D30206384F83E0070BD80F827
:1013B8003C30FFF703FE82E7294B98428CBF00239D
:1013C800012399E74FF4967505FB03F3254DA5FB1B
:1013D80003539B090133A6E7A368BBB9451E06EB77
:1013E800460CB5FBFCF50135C5F30B05B5FA85F5DB
:1013F8006D0945BBC3B9013806EB4603B0FBF3F3EF
:101408000133C3F30B0343F40043A3E7451E06EB84
:10141800860C0CEB8C0CB5FBFCF50135C5F30B0504
:10142800B5FA85F56D09E4E7013806EB860303EBA9
:101438008303B0FBF3F30133C3F30B0343F44043DB
:1014480088E7042386E7012384E701207047012009
:10145800ACE700BFA08601007F841E0083DE1B432B
:10146800FF083D00D34D6210002800F0E08170B500
:1014780082B00446036813F0010F3BD09F4B9B6872
:1014880003F00C03042B2CD09C4B9B6803F00C033B
:10149800082B21D06368B3F5803F4FD0B3F5A02F58
:1014A80052D0964B1A6822F480321A601A6822F4D5
:1014B80080221A606368002B50D000F0EFFC0546CC
:1014C8008E4B1B6813F4003F14D100F0E7FC401B5F
:1014D8006428F5D90320B1E1884B5B6813F4800FC9
:1014E800D8D0864B1B6813F4003F03D06368002BE9
:1014F80000F09F81236813F0020F54D07F4B9B6844
:1015080013F00C0F3ED07D4B9B6803F00C03082BA7
:1015180033D0E368002B68D0794B01221A6000F0C1
:10152800BDFC0546754B1B6813F0020F54D100F043
:10153800B5FC401B0228F5D903207FE16F4A1368E8
:1015480043F480331360B5E76C4B1A6842F4802289
:101558001A601A6842F480321A60ABE700F09EFC09
:101568000546664B1B6813F4003FC3D000F096FC99
:10157800401B6428F5D9032060E1604B5B6813F4D5
:10158800800FC6D15D4B1B6813F0020F03D0E368D0
:10159800012B40F05081594A136823F0F803216960
:1015A80043EAC1031360236813F0080F42D063694C
:1015B8006BB3534B0122C3F8802E00F06FFC054635
:1015C8004E4B5B6F13F0020F34D100F067FC401BE9
:1015D8000228F5D9032031E1484A136823F0F803BB
:1015E800216943EAC1031360DDE7454B00221A6015
:1015F80000F054FC0546414B1B6813F0020FD2D093
:1016080000F04CFC401B0228F5D9032016E13C4BA6
:101618000022C3F8802E00F041FC0546374B5B6F73
:1016280013F0020F06D000F039FC401B0228F5D950
:10163800032003E1236813F0040F77D02F4B1B6CB2
:1016480013F0805F33D1002301932C4B1A6C42F0C6
:1016580080521A641B6C03F080530193019B01258F
:10166800284B1B6813F4807F23D0A368012B34D048
:10167800052B38D0214B1A6F22F001021A671A6F16
:1016880022F004021A67A368002B3DD000F006FC84
:1016980006461A4B1B6F13F0020F46D100F0FEFBF3
:1016A800801B41F288339842F3D90320C6E0002515
:1016B800D6E7144A136843F48073136000F0EEFB16
:1016C8000646104B1B6813F4807FCED100F0E6FB72
:1016D800801B0228F5D90320B0E0084A136F43F0B5
:1016E80001031367CFE7054B1A6F42F004021A672C
:1016F8001A6F42F001021A67C5E700BF00380240BE
:10170800000047420070004000F0C8FB0646524BFC
:101718001B6F13F0020F08D000F0C0FB801B41F2D2
:1017280088339842F3D9032088E0EDB9A369002BE8
:1017380000F08380484A926802F00C02082A51D0CF
:10174800022B17D0454B00221A6600F0A7FB04466F
:10175800414B1B6813F0007F42D000F09FFB001B39
:101768000228F5D9032069E03B4A136C23F0805323
:101778001364DBE7394B00221A6600F08FFB05463D
:10178800354B1B6813F0007F06D000F087FB401B29
:101798000228F5D9032051E0E369226A1343626AFB
:1017A80043EA8213A26A5208013A43EA0243E26A10
:1017B80043EA0263284A5360284B01221A6600F064
:1017C8006DFB0446244B1B6813F0007F06D100F024
:1017D80065FB001B0228F5D903202FE000202DE02F
:1017E80000202BE0012B2BD01B4B5B6803F48001FE
:1017F800E269914226D103F03F02216A8A4223D14D
:10180800616A47F6C0721A40B2EB811F1ED103F419
:101818004031A26A5208013AB1EB024F18D103F0E5
:101828007063E26AB3EB026F14D1002006E0012076
:101838007047012002E0012000E0002002B070BDE6
:101848000120FBE70120F9E70120F7E70120F5E790
:101858000120F3E70120F1E7003802400000474289
:1018680008B5254B9B6803F00C03042B3FD0082BCD
:101878003FD1214B5A6802F03F025B6813F4800F96
:1018880012D01D4B5968C1F388111C480023A1FBD5
:101898000001FFF73BF9184B5B68C3F301430133C1
:1018A8005B00B0FBF3F025E0134B5968C1F3881CCB
:1018B8004FEA4C11B1EB0C006EEB0E0E4FEA8E1393
:1018C80043EA90638101091A63EB0E03DB0043EAE4
:1018D8005173C90011EB0C0C43F10003990200236A
:1018E8004FEA8C2041EA9C51FFF710F9D3E70348EF
:1018F80000E0034808BD00BF0038024040787D0181
:101908000024F400002800F09B8070B50D460446C2
:101918004F4B1B6803F007038B4208D2CBB24C4AEB
:101928001370136803F007038B4240F08B80236821
:1019380013F0020F17D013F0040F04D0454A936830
:1019480043F4E0539360236813F0080F04D0414A2E
:10195800936843F4604393603E4A936823F0F0032E
:10196800A1680B439360236813F0010F32D06368BA
:10197800012B21D09A1E012A25D9364A126812F065
:10198800020F61D033498A6822F0030213438B6047
:1019980000F084FA06462F4B9B6803F00C0362683C
:1019A800B3EB820F16D000F079FA801B41F288332E
:1019B8009842F0D9032042E0264A126812F4003F08
:1019C800E0D101203BE0234A126812F0007FD9D110
:1019D800012034E01E4B1B6803F00703AB4207D914
:1019E800EAB21B4B1A701B6803F00703AB422DD1F8
:1019F800236813F0040F06D0164A936823F4E053C3
:101A0800E1680B439360236813F0080F07D0114A6D
:101A1800936823F46043216943EAC1039360FFF7A5
:101A28001FFF0C4B9B68C3F303130B4AD35CD840CE
:101A38000A4B18600A4B186800F0E4F9002070BDE2
:101A4800012070470120FAE70120F8E70120F6E7B6
:101A5800003C024000380240A04000080800002076
:101A680004000020014B1868704700BF08000020E0
:101A780008B5FFF7F7FF044B9B68C3F38223034ABB
:101A8800D35CD84008BD00BF00380240B040000811
:101A980008B5FFF7E7FF044B9B68C3F34233034ADB
:101AA800D35CD84008BD00BF00380240B0400008F1
:101AB80000230F2B00F2D28070B582B060E08568F9
:101AC8005E000324B44025EA0405CC68B4402C43E6
:101AD8008460456825EA02054C68C4F300129A4000
:101AE8002A4342605AE0DC08083450F8246003F0C6
:101AF800070295000F22AA4026EA020E0A69AA40A8
:101B080042EA0E0240F824205CE0042200E00022B1
:101B180002FA0EF22A430234514D45F82420514A64
:101B280094686FEA0C0224EA0C054E6816F4801FCC
:101B380001D04CEA04054B4CA560E46802EA0405B0
:101B48004E6816F4001F01D04CEA0405454CE560C8
:101B5800646802EA04054E6816F4003F01D04CEAB6
:101B68000405404C6560246822404D6815F4803FA8
:101B780001D04CEA04023B4C226001330F2B6BD896
:101B880001229A400C6804EA020C32EA0404F4D1F7
:101B98004C6804F00304013C012C90D94A6802F017
:101BA8000302032A09D0C4685D000322AA4024EA7C
:101BB80002048A68AA402243C2604A6802F003020B
:101BC800022A90D004684FEA430E032202FA0EF26A
:101BD80024EA02044A6802F0030202FA0EF22243DF
:101BE80002604A6812F4403FC7D0002201921E4AA0
:101BF800546C44F480445464526C02F48042019260
:101C0800019A9C08A51C164A52F8255003F00302B5
:101C18004FEA820E0F2202FA0EF225EA0205134A53
:101C280090423FF474AF02F5806290420ED002F504
:101C3800806290420CD002F5806290420AD002F590
:101C4800806290423FF461AF072261E701225FE7BB
:101C580002225DE703225BE702B070BD704700BF58
:101C680000380140003C01400038024000000240BA
:101C780070B50446866D00F011F994F83530DBB282
:101C8800022B06D080236365002384F834300120BA
:101C980070BD05462268136823F016031360226896
:101CA800536923F080035361236CE3B122681368FE
:101CB80023F0080313602268136823F001031360FC
:101CC80023681B6813F0010F11D000F0E7F8431BDD
:101CD800052BF5D920236365032084F835000023FC
:101CE80084F83430D4E7A36C002BDFD1E3E7E26D4E
:101CF8003F239340B360012384F83530002084F8F3
:101D08003400C5E790F83530DBB2022B03D08023CE
:101D1800436501207047052380F835300268136851
:101D280023F001031360002070470000074AD368BE
:101D380023F4E0631B041B0C000200F4E06003437F
:101D480043F0BF6343F40033D360704700ED00E015
:101D580000B5194BDB68C3F30223C3F1070CBCF1D0
:101D6800040F28BF4FF0040C03F1040EBEF1060F58
:101D780018D9033B4FF0FF3E0EFA0CFC21EA0C0188
:101D880099400EFA03F322EA0303194300280BDBF8
:101D98000901C9B200F1604000F5614080F8001304
:101DA8005DF804FB0023E5E700F00F000901C9B264
:101DB800024B1954F4E700BF00ED00E014ED00E019
:101DC800002807DB00F01F02400901239340024A64
:101DD80042F82030704700BF00E100E00138B0F160
:101DE800807F0BD24FF0E0235861054AF02182F83A
:101DF80023100020986107221A617047012070475C
:101E080000ED00E010B504460E4B18784FF47A73D5
:101E1800B3FBF0F30C4A1068B0FBF3F0FFF7DEFFFA
:101E280068B90F2C01D901200AE0002221464FF0A1
:101E3800FF30FFF78DFF054B1C60002000E00120FC
:101E480010BD00BF00000020080000200400002092
:101E580008B50B4B1A6842F400721A601A6842F40B
:101E680080621A601A6842F480721A600320FFF7D1
:101E78005DFF0F20FFF7C6FFFFF7FCF9002008BD44
:101E8800003C0240034A1168034B1B780B44136063
:101E9800704700BF0C01002000000020014B1868AB
:101EA800704700BF0C01002038B50446FFF7F6FF65
:101EB8000546B4F1FF3F02D0044B1B781C44FFF7E2
:101EC800EDFF401BA042FAD338BD00BF0000002040
:101ED80070B4036A026A22F00102026246688269EB
:101EE80022F073020C6844EA020523F002028B68B0
:101EF80013430D4CA04209D00B4CA0420DD04660B4
:101F080085614A684263036270BC704723F0080326
:101F1800CA68134323F00403EEE726F440764A69BF
:101F280032438E691643EAE70000014030B4036A81
:101F3800026A22F4807202624568C26922F0730262
:101F48000C68224323F400738C6843EA04230F4C83
:101F5800A04209D00D4CA0420ED04560C2614A682B
:101F6800C263036230BC704723F40063CC6843EA61
:101F7800042323F48063EDE725F440554C6945EAD2
:101F880004158C6945EA0415E7E700BF0000014025
:101F980030B4036A026A22F4805202624468C26959
:101FA80022F4E6420D6842EA052223F400538D68C4
:101FB80043EA0533074DA84206D04460C2614A6827
:101FC8000264036230BC704724F480444D6944EADB
:101FD8008514F2E70000014010B4036A046A24F093
:101FE80001040462846924F0F00C4CEA021223F024
:101FF8000A030B43826103625DF8044B704710B417
:10200800036A046A24F010040462846924F4704C9E
:102018004CEA023223F0A00343EA0113826103620F
:102028005DF8044B7047836823F070030B4343F05B
:1020380007038360704770470368294A90420ED0AF
:10204800B0F1804F0BD0A2F57C42904207D002F548
:102058008062904203D002F58062904203D123F05F
:1020680070034A6813431E4A90421AD0B0F1804F59
:1020780017D0A2F57C42904213D002F580629042BC
:102088000FD002F5806290420BD002F59A3290424E
:1020980007D002F58062904203D002F58062904238
:1020A80003D123F44073CA68134323F080034A69B9
:1020B800134303608B68C3620B688362084B9842C2
:1020C8000AD001234361036913F0010F03D00369A8
:1020D80023F00103036170470B690363F1E700BF55
:1020E8000000014040B310B5044690F83D30F3B10C
:1020F800022384F83D30214651F8040BFFF79CFF7A
:10210800012384F8463084F83E3084F83F3084F860
:10211800403084F8413084F8423084F8433084F801
:10212800443084F8453084F83D30002010BD80F8F4
:102138003C30FEF77BFFDBE70120704740B310B56A
:10214800044690F83D30F3B1022384F83D3021462F
:1021580051F8040BFFF770FF012384F8463084F828
:102168003E3084F83F3084F8403084F8413084F8B9
:10217800423084F8433084F8443084F8453084F899
:102188003D30002010BD80F83C30FFF754FFDBE7FE
:102198000120704730B4036A026A22F0100202621A
:1021A8004468826922F4E6420D6842EA052223F077
:1021B80020038D6843EA05130E4DA84209D00D4D42
:1021C800A8420ED0446082614A688263036230BCD0
:1021D800704723F08003CD6843EA051323F04003DA
:1021E800EDE724F440644D6944EA85048D6944EAC6
:1021F8008504E7E70000014038B590F83C30012B32
:1022080066D004460D46012380F83C300C2A5AD883
:10221800DFE802F0075959591B595959305959598A
:1022280044000068FFF754FE2268936943F00803EE
:1022380093612268936923F0040393612268936988
:1022480029690B43936100203EE00068FFF7A2FF75
:102258002268936943F4006393612268936923F4C5
:102268008063936122689369296943EA0123936132
:10227800002029E00068FFF759FE2268D36943F07F
:102288000803D3612268D36923F00403D361226869
:10229800D36929690B43D361002015E00068FFF773
:1022A80077FE2268D36943F40063D3612268D36957
:1022B80023F48063D3612268D369296943EA01233F
:1022C800D361002000E00120002384F83C3038BDB1
:1022D8000220FCE710B4846824F47F4C42EA03220D
:1022E8000A4342EA0C0282605DF8044B704790F89A
:1022F8003C30012B78D010B50446012380F83C30DF
:10230800022380F83D300268936823F47F4323F06A
:10231800770393600B68602B4CD029D8402B54D09E
:102328000CD9502B22D1CA6849680068FFF754FEBF
:1023380050212068FFF777FE002005E0202B0DD004
:1023480009D9302B0AD00120012384F83D3000231D
:1023580084F83C3010BD0BB1102B05D1194620680C
:10236800FFF761FE0020EFE70120EDE70120EBE732
:10237800B3F5805F34D0B3F5005F0CD1CB684A6801
:1023880089680068FFF7A6FF2268936843F48043D2
:1023980093600020D8E7702B24D1CB684A688968FD
:1023A8000068FFF797FF2268936843F0770393600C
:1023B8000020C9E7CA6849680068FFF720FE602165
:1023C8002068FFF730FE0020BEE7CA684968006849
:1023D800FFF702FE40212068FFF725FE0020B3E743
:1023E8000020B1E70120AFE70220704701F01F018C
:1023F800012303FA01FC036A23EA0C030362036A5C
:1024080002FA01F10B4303627047000010B504465D
:102418000846002932D194F83E30DBB2013B18BFA0
:102428000123002B63D1002841D1022384F83E30D8
:10243800012201462068FFF7D9FF23682E4A9342FC
:1024480045D023682C4A934246D0B3F1804F43D0FD
:10245800A2F57C4293423FD002F5806293423BD082
:1024680002F58062934237D002F59A32934233D014
:102478001A6842F001021A60002037E0042908D0E7
:1024880008290DD094F84130DBB2013B18BF012375
:10249800C7E794F83F30DBB2013B18BF0123C0E720
:1024A80094F84030DBB2013B18BF0123B9E7042898
:1024B80005D0082807D0022384F84130B8E7022362
:1024C80084F83F30B4E7022384F84030B0E75A6C10
:1024D80042F400425A64B4E79A6802F00702062AF6
:1024E80007D01A6842F001021A60002010BD0120CE
:1024F800FCE70020FAE700BF0000014090F83C30FC
:10250800012B35D010B4012380F83C30022380F829
:102518003D3003685A689C6822F0700C0A6842EAE9
:102528000C025A600368134A934212D0B3F1804FE9
:102538000FD0A2F57C4293420BD002F58062934201
:1025480007D002F58062934203D002F59A32934293
:1025580004D124F080044A6814439C60012380F865
:102568003D30002380F83C3018465DF8044B704736
:102578000220704700000140026802F10C0353E892
:10258800003F23F490730C3242E800310029F3D164
:10259800026802F1140353E8003F23F001031432E8
:1025A80042E800310029F3D1036B012B05D0202329
:1025B80080F84230002303637047026802F10C037D
:1025C80053E8003F23F010030C3242E800310029A1
:1025D800F3D1ECE790F84130DBB2212B01D0022097
:1025E80070478368B3F5805F17D0036A5A1C02628C
:1025F8001A7803685A60C38C9BB2013B9BB2C384B0
:102608004BB90268D36823F08003D3600268D368AB
:1026180043F04003D360002070470369002BE4D1E6
:10262800036A1B880268C3F308035360036A023312
:102638000362E0E738B504460268136923F440539F
:10264800C1680B43136183680269134342691343EA
:10265800C2691A430168CB6823F4164323F00C03BC
:102668001343CB600268536923F4407381690B43B9
:1026780053610368314A934206D002F5806293425F
:1026880002D0FFF7F5F901E0FFF702FAE369B3F5C5
:10269800004F29D00021031849411B1841F10001BE
:1026A800C90041EA5371DB00181863684FEA8302D6
:1026B8004FEA937341F10001FEF728FA204DA5FB7C
:1026C80000325109642303FB11031B013233A5FBBC
:1026D80003235B0903F0F00202EB011203F00F037E
:1026E800216813448B6038BD0023021843EB0301B3
:1026F800121841F10001C90041EA5271D2001018C4
:1027080041F10001626892185B41FEF7FFF90C4D38
:10271800A5FB00325109642303FB1103DB003233AC
:10272800A5FB03235B095A0002F4F87202EB0112BD
:1027380003F00703216813448B60D4E700100140BD
:102748001F85EB512DE9F04383B005460E46174629
:102758009946DDF828802C68246836EA04030CBF03
:102768004FF0010C4FF0000CBC4528D1B8F1FF3FE9
:10277800F1D0FFF793FBA0EB0900404523D8B8F14F
:10278800000F22D02B68DA6812F0040FE3D0802EF5
:10279800E1D0402EDFD01A6812F0080FDBD00024F9
:1027A80001941A6801925B680193019B2846FFF720
:1027B800E3FE08236B6485F84040012000E0002018
:1027C80003B0BDE8F0830320FAE70320F8E760B31D
:1027D80010B5044690F8413013B3242384F84130EF
:1027E8002268D36823F40053D3602046FFF722FF02
:1027F8002268136923F4904313612268536923F014
:102808002A0353612268D36843F40053D36000203D
:102818006064202384F8413084F84230606310BD3E
:1028280080F84030FEF7D2FCD7E7012070472DE949
:10283800F04182B01E4690F84130DBB2202B56D1D1
:1028480004460D469046002955D00AB901204FE0AC
:1028580000234364212380F84130FFF71FFB07461C
:10286800A4F82480A4F82680A368B3F5805F02D07A
:102878004FF0000814E023692BB34FF000080FE075
:10288800202384F84130032032E038F8023B2268E4
:10289800C3F308035360E28C92B2013A92B2E28425
:1028A800E38C9BB293B100963B46002280212046E0
:1028B800FFF748FF0028E3D1002DE6D015F8012BDB
:1028C80023685A60E7E7A8460025E9E700963B46F3
:1028D800002240212046FFF735FF18B9202384F84D
:1028E800413005E0202384F84130032000E0022035
:1028F80002B0BDE8F0810120FAE7704708B5016829
:10290800CA6822F04002CA60202280F84120FFF7FE
:10291800F4FF002008BD7047704708B5806B00239E
:10292800C385C384FFF7F8FF08BD704790F84230AD
:10293800DBB2222B69D18368B3F5805F4FD0826AFE
:10294800B3F5805F04D0002B56D10369002B53D117
:1029580003685B681370836A01338362C38D9BB21B
:10296800013B9BB2C385002B51D100B583B00268EF
:10297800D36823F02003D3600268D36823F48073FC
:10298800D3600268536923F001035361202380F860
:10299800423000234363036B012B33D100230363CD
:1029A800026802F10C0353E8003F23F010030C32D5
:1029B80042E800310029F3D103681A6812F0100FB9
:1029C80006D0002201921A6801925B680193019B6C
:1029D800818DFFF7AAFF002003B05DF804FB0269B0
:1029E800002AACD1826A03685B68C3F308031380CA
:1029F800836A02338362B1E703685B6803F07F038D
:102A08001370A8E7FFF787FFE5E70220704700206B
:102A18007047000030B583B0044602681368D06878
:102A2800516913F00F0505D113F0200F02D010F0F3
:102A3800200F19D12DB111F0010119D110F4907F97
:102A480016D1216B01297DD013F0800F03D010F02F
:102A5800800F40F0198113F0400F03D010F0400FA1
:102A680040F0168103B030BD2046FFF75FFFF9E75D
:102A780013F0010F06D010F4807F03D0626C42F08F
:102A88000102626413F0040F04D019B1626C42F0C1
:102A98000202626413F0020F04D019B1626C42F0B2
:102AA8000402626413F0080F07D010F0200F00D161
:102AB80019B1626C42F008026264626C002AD1D0DB
:102AC80013F0200F02D010F0200F29D123685B6982
:102AD80003F04003626C12F0080F00D163B3204684
:102AE800FFF74AFD23685B6913F0400F20D0226886
:102AF80002F1140353E8003F23F04003143242E884
:102B080000310029F3D1E36B73B1634A1A65E06BB6
:102B1800FFF7F8F80028A5D0E06B036D9847A1E708
:102B28002046FFF703FFD1E72046FFF7F5FE99E7B8
:102B38002046FFF7F1FE95E72046FFF7EDFE00235C
:102B480063648FE713F0100F3FF47EAF10F0100F9F
:102B58003FF47AAF002301931368019353680193FC
:102B6800019B536913F0400F52D0E26B13685B6806
:102B78009BB2002B3FF476AFA18D99427FF672AFDE
:102B8800E385D369B3F5807F37D0226802F10C035F
:102B980053E8003F23F480730C3242E800310029E7
:102BA800F3D1226802F1140353E8003F23F0010334
:102BB800143242E800310029F3D1226802F11403EB
:102BC80053E8003F23F04003143242E80031002963
:102BD800F3D1202384F8423000232363226802F1D2
:102BE8000C0353E8003F23F010030C3242E8003195
:102BF8000029F3D1E06BFFF73BF802236363A18D53
:102C0800E38D9BB2C91A89B22046FFF78EFE29E7E9
:102C1800A18DE38D9BB2C91A89B2E38D9BB2002BBB
:102C28003FF420AF00293FF41DAF226802F10C03E6
:102C380053E8003F23F490730C3242E80030002838
:102C4800F3D1226802F1140353E8003F23F0010393
:102C5800143242E800300028F3D1202384F84230AF
:102C680000232363226802F10C0353E8003F23F09A
:102C780010030C3242E800300028F3D102236363CA
:102C88002046FFF752FEEDE62046FFF7A3FCE9E6F3
:102C98002046FFF733FEE5E623290008034AD2F869
:102CA800883043F47003C2F88830704700ED00E0C4
:102CB80070470146002007E000EB8000531C0B60C2
:102CC800137803EB400030380A681378303BDBB2E6
:102CD800092BF1D970472DE9F04F83B005460E4610
:102CE80093461F46DDF830A00D9CDDF838900F9B09
:102CF80013F0030F19D1A0460192C84509D202F179
:102D0800010B3B4631462020A84708F101085A46E6
:102D1800F3E7DDF804B008E0013C02F101083B46A6
:102D280031461AF80400A8474246002CF4D10F9BFC
:102D380013F0020F03D1104603B0BDE8F08FA2EBE9
:102D48000B034B45F7D2541C3B4631462020A8477D
:102D58002246F4E72DE9F04385B00C9D0D9C9DF8C3
:102D68003890DDF83C80DDF840E0119F129E16F0A7
:102D7800020F21D17FB116F0010F0CD0B9F1000F6D
:102D880002D116F00C0F06D0013F04E04FF0300CD2
:102D980005F804C00134744501D21F2CF6D916F089
:102DA800010F09D0BC4207D21F2C05D84FF0300CB8
:102DB80005F804C00134F2E716F0100F17D016F426
:102DC800806F04D11CB1744524D0BC4222D0B8F124
:102DD800100F2BD0B8F1100F33D0B8F1020F3BD041
:102DE8001F2C04D84FF0300C05F804C001341F2CF8
:102DF80007D8B9F1000F37D04FF02D0C05F804C0F3
:102E080001340396029701940095FFF764FF05B01B
:102E1800BDE8F083B4F1010C06D0B8F1100F01D071
:102E28006446D4E7023CD2E76446D0E716F0200FA8
:102E3800D0D11F2CCED84FF0780C05F804C001343F
:102E4800CEE716F0200FC8D01F2CC6D84FF0580C6C
:102E580005F804C00134C3E71F2CC1D84FF0620C39
:102E680005F804C00134BBE716F0040F05D04FF095
:102E78002B0C05F804C00134C3E716F0080FC0D0C6
:102E88004FF0200C05F804C00134BAE7F0B591B052
:102E9800169C189D1B9E0CB926F0100616F4806E21
:102EA80016D064B34FF0000E12E00CF1300C5FFA4C
:102EB8008CFC0EF101070EF1400EEE440EF820CC0A
:102EC800B4FBF5FCAC421BD31F2F19D8BE46644691
:102ED800B4FBF5FC05FB1C4C5FFA8CFCBCF1090F3C
:102EE800E3D916F0200F08D04127BC445FFA8CFCC8
:102EF800ACF10A0C5FFA8CFCDBE76127F5E72746A3
:102F080006961A9C0594199C049403959DF85C40B8
:102F18000294019708AC0094FFF71CFF11B0F0BDB4
:102F28002DE9F04F95B009900A910B929B461E9D92
:102F38001F9E229FDDF88C80DDF898A055EA0603D5
:102F480001D12AF0100A1AF480641FD055EA06034A
:102F580030D000241AE003F13002D2B204F10109A2
:102F680004F150030DEB030404F8202C3A464346C1
:102F780028463146FDF7CAFDBD4276EB08031BD350
:102F8800B9F11F0F18D84C4605460E463A46434637
:102F980028463146FDF7BAFDD3B2092BDBD91AF022
:102FA800200F05D041221A44D2B20A3AD2B2D5E74C
:102FB8006122F8E74FF00009CDF818A0259B05938A
:102FC800249B049303979DF880300293CDF80490D6
:102FD8000CAB00935B460B9A0A990998FFF7BAFE67
:102FE80015B0BDE8F08F00002DE9F04F2DED028BF4
:102FF80091B082460C4693461D46DDE91C231046D7
:103008001946FDF709FD002800F007814FF0FF324F
:10301800B14BDDE91C01FDF727FD002840F0FD80DC
:103028004FF0FF326FF48013DDE91C01FDF7FEFC61
:10303800002840F0F28000220023DDE91C01FDF7A2
:10304800F5FC002840F0FE809DED1C7B8DED067B95
:10305800209B13F480630F9301D106231E93DDE9AF
:1030680006010246C1F30A50C1F31303904643F028
:103078007F5949F44019A0F2FF30FDF7FBF984A30A
:10308800D3E90023FDF760FA83A3D3E90023FDF712
:10309800A5F806460F460022904B40464946FDF7E4
:1030A8009BF87FA3D3E90023FDF74EFA02460B46AF
:1030B80030463946FDF792F8FDF7E0FC0646FDF785
:1030C800D9F98046894678A3D3E90023FDF73CFA6D
:1030D8000022834BFDF782F8FDF7D0FC074674A366
:1030E800D3E9002340464946FDF72EFA8046894633
:1030F8003846FDF7BFF970A3D3E90023FDF724FA9A
:1031080002460B4640464946FDF766F88046894622
:1031180002460B46FDF718FACDE90A0107F2FF3718
:1031280000210022CDE908123B05099300230893EA
:1031380042464B4640464946FDF750F8CDE90C015A
:1031480042464B4600204FF08041FDF745F8804647
:1031580089460022634BDDE90A01FDF71FFB0022C7
:10316800614BFDF73BF802460B46DDE90A01FDF726
:1031780015FB00225D4BFDF731F802460B46DDE9F1
:103188000A01FDF70BFB02460B4640464946FDF790
:1031980025F802460B46DDE90C01FDF7FFFA00228F
:1031A800534BFDF71BF8DDE90823FDF7CDF9804601
:1031B800894649EC188BDDE90623FDF755FC40B13B
:1031C800013E0022484B40464946FDF7E7FA41ECEC
:1031D800180B06F16303C62B3FD80427209B13F472
:1031E800006F44D036A3D3E90023DDE906894046C1
:1031F8004946FDF72FFC00283FD033A3D3E900232D
:1032080040464946FDF712FC002836D01E9BB342C3
:1032180025DD9E1B731E1E9323E0209B04931F9B9A
:1032280003931E9B02939DED1C7B8DED007B2B462B
:103238005A462146504600F0CFF811B0BDEC028B3B
:10324800BDE8F08F9FED227B8DED067B1C9B0693DE
:103258001D9B03F100430793FAE60527BEE7002309
:103268001E93209B43F48063209300273E461F9BB8
:103278009F423FD2A3EB07083EE01E9B002BF6D0EF
:103288000F9B002BF3D01E9B013B1E93EFE700BF63
:10329800FB799F501344D33FB3C8608B288AC63F3D
:1032A80061436F63A787D23F71A379094F930A409F
:1032B8001655B5BBB16B0240EF39FAFE422EE63F18
:1032C8002D431CEBE2361A3F0000000080842E419B
:1032D8000000000000000000FFFFEF7F0000F83F43
:1032E8000000E03F00002C4000002440000018408F
:1032F8000000F03F4FF00008209B13F0020902D0B5
:103308000FB14FF000083EB153EC182BDDE9060170
:10331800FDF744FACDE9060100220023DDE91C018E
:10332800FDF784FB00283DD1209B23F40063049320
:10333800CDF80C801E9B02939DED067B8DED007BE6
:103348002B465A462146504600F046F8002F3FF4D7
:1033580074AF209B13F0200F2CD04FF0450C00F1D8
:1033680001082B46024621466046D04786EAE673A6
:10337800A3EBE67305220592013F0497002203920E
:103388000A220292F00F019000932B4642462146F2
:103398005046FFF77BFDB9F1000F3FF44EAF0246F0
:1033A8001F9F10E0DDE90601024601F10043CDE967
:1033B8000623B9E74FF0650CD1E7561C2B4621468A
:1033C8002020D0473246A2EB0B03BB42F5D3104670
:1033D80033E700BF000000002DE9F04F2DED028B10
:1033E80095B007900A9192469B46DDE92089229D77
:1033F80042464B4640464946FDF70EFB002840D062
:103408004FF0FF326FF4801340464946FDF70EFB3C
:10341800002845D14FF0FF329F4B40464946FDF703
:1034280023FB00284BD198A3D3E900234046494603
:10343800FDF71AFB00285AD195A3D3E9002340468B
:103448004946FDF7F3FA002851D1002200234046EF
:103458004946FDF7EBFA002857D100230B93249B2C
:1034680013F4806F5CD000241F2C5BD8092D59D928
:1034780004F150036B44302203F8202C013D013441
:10348800F2E7249B0393239B029303230193834B2B
:1034980000935B4652460A990798FFF71CFC2CE1FB
:1034A800249B0393239B0293042301937C4B009357
:1034B8005B4652460A990798FFF70DFC1DE1249BCD
:1034C80013F004030FD0774A7BB1042324990391A6
:1034D80023990291019300925B4652460A990798F4
:1034E800FFF7F9FB09E1704AEEE70323EEE7249BB7
:1034F8000493239B03930295CDE900895B465246CA
:103508000A990798FFF770FDF7E042464B460020FE
:103518000021FCF761FE8046894601230B939EE754
:103528000625A0E740464946FDF7A8FA0646FCF7F7
:10353800A1FF02460B4640464946FCF74DFE5B4B51
:1035480003EBC50393ED008B53EC182BFCF7FCFF42
:1035580002460B46CDE90823FDF7B8FA0746FCF703
:1035680079FF02460B46DDE90801FCF735FE024605
:103578000B46CDE9082300224D4BFDF775FA50B3F1
:1035880001373846FCF766FF02460B4651EC180B2C
:10359800FDF756FA08B10136002755BB3046FCF74F
:1035A80069FF02460B4640464946FCF715FE0746AA
:1035B800884600223E4BFDF739FA38B100223C4BD1
:1035C80038464146FDF750FA002842D016F0010F60
:1035D8003FD001363DE00022354BDDE90801FDF71B
:1035E80025FA0028D9D117B117F0010FD5D0013726
:1035F800D3E71F2C17D8013D2E4BA3FB0723DB086D
:10360800194603EB8303A7EB4303621C303304F131
:1036180050000DEB000404F8203C092F02D90F4696
:103628001446E6E714461F2C0AD86B1E45B104F170
:1036380050026A44302102F8201C1D460134F2E78A
:103648001F2C06D804F150036B442E2203F8202CBB
:1036580001341F2C33D8184A82FB0632F317C3EB08
:10366800A2031A4603EB8303A6EB4303611C303322
:1036780004F150000DEB000404F8203C1646EAB1B2
:103688000C46E6E7AFF300800000000065CDCD41B1
:103698000000000065CDCDC1FFFFEF7FC4400008EA
:1036A800C8400008BC400008B8400008D0400008E6
:1036B8000000E03FCDCCCCCC676666660C46249B08
:1036C80003F00303012B1DD01F2C09D80B9B002BE3
:1036D80035D004F150036B442D2203F8202C01341B
:1036E800249B0393239B029301940CAB00935B46AA
:1036F80052460A990798FFF7EEFA15B0BDEC028B0F
:10370800BDE8F08F239BB3B10B9B1BB9249B13F02F
:103718000C0F12D0239B013B2393194606E004F1BA
:1037280050036B44302203F8202C01348C42CBD256
:103738001F2CF4D9C8E72399F8E72399F6E7249BC7
:1037480013F0040F07D004F150036B442B2203F845
:10375800202C0134C4E7249B13F0080FC0D004F1D7
:1037680050036B44202203F8202C0134B8E700BF33
:103778002DE9F04F8FB0074616460D93884600296D
:1037880000F0248300240D9B1878002800F0208383
:10379800252809D0651C334622464146B8470D9B6B
:1037A80001330D932C46EEE701330D9300250D9B55
:1037B8001978A1F12002102A0AD8DFE802F03809A6
:1037C800093D0909090909090933092E09092900C7
:1037D800A1F13003DBB2092B33D92A2936D00023D3
:1037E8000A930D9B1A782E2A40D04FF0000B0D9AA1
:1037F8001378683B122B77D8DFE803F06476D3762A
:103808005676767676767676727676767676D80088
:1038180045F0010501330D93C9E745F00205013371
:103828000D93C4E745F0040501330D93BFE745F058
:10383800080501330D93BAE745F0100501330D93E0
:10384800B5E70DA8FFF735FA0A90CAE7189B1A1DC5
:1038580018921868002804DB0A900D9B01330D9319
:10386800BFE745F0020543420A93F6E745F4806551
:103878005A1C0D925A78A2F13003DBB2092B04D9F5
:103888002A2A07D04FF0000BB1E70DA8FFF711FA6D
:103898008346ACE7189B1A1D18921B6823EAE37B42
:1038A8000D9B01330D93A2E745F48071531C0D93D2
:1038B80052786C2A01D00D4616E045F44075013364
:1038C8000D9311E045F08001531C0D935278682A3E
:1038D80001D00D4608E045F0C00501330D9303E023
:1038E80045F4807501320D920D9B1878A0F12503DF
:1038F800532B00F26182DFE813F054025F025F028B
:103908005F025F025F025F025F025F025F025F02A7
:103918005F025F025F025F025F025F025F025F0297
:103928005F025F025F025F025F025F025F025F0287
:103938005F025F025F025F025F027401540174015B
:103948005F025F025F025F025F025F025F025F0267
:103958005F025F025F025F025F025F025F025F0257
:103968005E005F025F025F025F025F025F025F024A
:103978005F025F025E009B015E00740154017401E6
:103988005F025E005F025F025F025F025F025E002D
:1039980039025F025F02D4015F025E005F025F02CC
:1039A8005E0045F4007501320D929DE745F480757F
:1039B80001320D9298E7782809D058283AD06F2814
:1039C8003AD062283AD025F010050A2300E01023E7
:1039D800582835D0692803D0642801D025F00C0573
:1039E80015F4806F01D025F0010569282BD06428D3
:1039F80029D015F4007F40F0968015F4807F40F0C0
:103A0800AE8015F0400F00F0BF80189A111D189174
:103A1800127805950A990491CDF80CB00293002309
:103A2800019300923346224641463846FFF72EFA64
:103A3800044629E01023CBE70823C9E70223C7E798
:103A480045F02005C6E715F4007F21D115F4807FE5
:103A580042D115F0400F58D0189A111D18911278BC
:103A680082EAE271A1EBE27105950A980490CDF81B
:103A78000CB00293D20F0192009133462246414680
:103A88003846FFF703FA04460D9B01330D937AE697
:103A9800189A073222F0070202F1080118915168BA
:103AA80012680846002913DB08950A9D0795CDF88A
:103AB80018B0049300230593C90F02910092019056
:103AC8003346224641463846FFF72AFA0446DBE7E2
:103AD800524261EB4100E7E7189A111D18911268EC
:103AE80082EAE271A1EBE27105950A980490CDF89B
:103AF8000CB00293D20F0192009133462246414600
:103B08003846FFF7C3F90446BEE715F0800F05D025
:103B1800189A111D1891B2F90020A1E7189A111DE1
:103B2800189112689CE7189A073222F0070202F1EE
:103B38000801189108950A990791CDF818B0002145
:103B4800049305910291D2E90023CDE9002333467D
:103B5800224641463846FFF7E3F9044694E7189AA7
:103B6800111D189105950A990491CDF80CB002938E
:103B78000023019313680093334622464146384692
:103B8800FFF784F904467FE715F0800F04D0189AF0
:103B9800111D189112883CE7189A111D1891126886
:103BA80037E746281AD0189B073323F0070303F199
:103BB8000802189204950A9A0392CDF808B0D3E93E
:103BC8000023CDE900233346224641463846FFF715
:103BD80003FC04460D9B01330D93D4E545F0200505
:103BE800E1E7672801D0472801D145F40065452859
:103BF80001D0472801D145F02005189B073323F051
:103C0800070303F10802189204950A9A0392CDF863
:103C180008B0D3E90023CDE90023334622464146C4
:103C28003846FFF7E1F904460D9B01330D93AAE5E9
:103C380015F002051FD04FF001091898031D1893BD
:103C480004F1010A3346224641460078B847BDB917
:103C58000D9B01330D93544695E502F1010A334655
:103C680041462020B8474B46524603F101099B457F
:103C7800F3D81446E1E70123DDF828B02246F4E73B
:103C88005246DDF828A006E0551C33464146202060
:103C9800B847A1462A4609F10104CA45F4D8924614
:103CA800D6E7189B1A1D1892D3F800A0BBF1000F95
:103CB8001ED14FF0FF33D14602E009F10109134646
:103CC80099F8002012B15A1E002BF6D1A9EB0A0967
:103CD80015F480630B9302D0D94528BFD94615F057
:103CE80002030C9306D022465C46B3460B9E1DE0A9
:103CF8005B46E0E722460A9C4B4607E002F10109D1
:103D0800334641462020B8472B464A465D1C9C4214
:103D1800F4D8A9465C46B3460B9E07E01C460AF158
:103D2800010A551C5B464146B8472A469AF80000E6
:103D380020B1002EF3D0631E002CEFD114465E464E
:103D48000C9B1BB90D9B01330D931CE5DDF828A0D6
:103D580006E0551C334641462020B847A1462A466E
:103D680009F10104CA45F4D81446EBE745F02105EA
:103D7800189B1A1D18921B68059508220492CDF805
:103D88000CB0102202920022019200933346224680
:103D980041463846FFF77AF804460D9B01330D93E8
:103DA800F1E4651C3346224641462520B8470D9B61
:103DB80001330D932C46E6E4651C33462246414602
:103DC800B8470D9B01330D932C46DCE4074FD9E42B
:103DD800B44201D3721E00E0224633464146002019
:103DE800B84720460FB0BDE8F08F00BFB92C0008D7
:103DF80000B9704708B5FDF7BFF908BD0FB400B5A5
:103E080085B006AA52F8043B039200924FF0FF32A5
:103E180002A90448FFF7ACFC05B05DF804EB04B058
:103E2800704700BFF93D000810B52DED028B82B038
:103E38000446B0EE408A037807EE903AF8EEE77A47
:103E480080EE277ADFED167A67EE277A17EE900A6A
:103E5800FCF722FB0022134BFCF7C0F9FCF736FEF7
:103E68000190E3684BB9A3681B68019A5A6384ED13
:103E7800058A02B0BDEC028B10BD042B06D0082BBE
:103E880009D0A3681B68019A1A64F0E7A3681B6845
:103E9800019A9A63EBE7A3681B68019ADA63E6E77D
:103EA80000007A4500408F4010B52DED028B044686
:103EB800B0EE608A017480ED010A02704370059BC0
:103EC8008360049BC360B0EE600AFFF7ADFF84ED2A
:103ED800058ABDEC028B10BD10B584B0044607EE10
:103EE800901A90ED057AF8EEE77A77EE877A0378FC
:103EF80007EE103AB8EEC77AF4EEC77AF1EE10FA88
:103F080016DD8DF80F309DF80F30DBB200EE103A59
:103F1800B8EE400A2046FFF787FF9DF80F30DBB266
:103F280007EE903AF8EE677AC4ED057A04B010BD52
:103F3800FCEEE77ACDED017A9DF804308DF80F306C
:103F4800E1E7000030B52DED028B83B0194C00215C
:103F58002046FEF75BFA04212046FEF757FA22684E
:103F6800536C43F400435364DFED138A9FED138AC7
:103F7800019400250095F0EE680AB0EE480A2B4639
:103F8800B42201210E48FFF78FFF01940423009308
:103F9800F0EE680AB0EE480A2B46B422012109481F
:103FA800FFF782FF0848FFF729FF03B0BDEC028B3B
:103FB80030BD00BF7C00002000000000CDCCCC3D0F
:103FC800100100202801002020410008704700004F
:103FD800DFF834D0FEF762FE0C480D490D4A002385
:103FE80002E0D458C4500433C4188C42F9D30A4AA6
:103FF8000A4C002301E013600432A242FBD300F014
:1040080011F8FCF75BFF704700000120000000205A
:104018000C000020404100080C0000204001002056
:10402800FEE7000070B50D4D0D4C641BA410002672
:10403800A64209D10B4D0C4C00F020F8641BA410CB
:104048000026A64205D170BD55F8043B98470136B5
:10405800EEE755F8043B98470136F2E73841000887
:1040680038410008384100083C4100080244034632
:10407800934200D1704703F8011BF9E7F8B500BF78
:10408800F8BC08BC9E467047F8B500BFF8BC08BC31
:044098009E46704789
:1040A00000000000000000000102030406070809E8
:1040B0000000000001020304666E6900666E692B51
:1040C000000000006E616E00666E692D0000000049
:1040D000000000000000F03F00000000000024404D
:1040E00000000000000059400000000000408F4028
:1040F000000000000088C34000000000006AF84093
:104100000000000080842E4100000000D0126341B6
:104110000000000084D797410000000065CDCD412C
:10412000496E697420537563636573730D0A0000EB
:0841300014CAFF7F010000002A
:04413800BD010008BD
:04413C0099010008DD
:0C41400001000000100000000024F4004A
:0400000508003FD9D7
:00000001FF
